:1000000000308A0004280000840183131F30830518
:1000100083168E15073083129F00A00183160108F6
:10002000C73908388100831290010030F80092002F
:10003000003083169200073083129F008316050854
:100040000330F700F70B222883121F080C138316C6
:100050009F01860183128601831605158312051DF3
:100060004128A008031D4128831605158312051D8C
:100070003C28A00803193428831606100130831287
:100080008606831605158312051D5528200B552855
:10009000831605158312051D5028A008031948284A
:1000A0008316861002308312860683160514831287
:1000B000051C602883160610831206100130A0006C
:1000C000831685148312851C6A2883168610831272
:0800D0008610A0012C2863003A
:02400E00193F58
:00000001FF
;PIC16F628A
