:1000000000308A0019280000223084008313000881
:10001000031918280130F800F701F70B0D28F80B29
:100020000C284A30F700F70B13281628800B0A28F3
:100030000034840183131F30830583168E15073027
:1000400083129F00A00183160108C7390838810078
:10005000831290010030F80005389200F9308316C1
:1000600092008611831286110C3097007D30950026
:1000700007309F00831605080330F700F70B3E2872
:1000800083121F080C1383169F0186138312861791
:10009000831605148312051C6028A008031D602820
:1000A0000130A00083168613831286139501103049
:1000B000A100FA30A2000420A10B59287D30950040
:1000C000831685148312851C7628200B7628A001C0
:1000D000831686138312861795011030A100FA301B
:1000E000A2000420A10B6F287D30950048286300F2
:02400E00193F58
:00000001FF
;PIC16F628A
